{
  "_format": "hh-sol-artifact-1",
  "contractName": "WavePortal",
  "sourceName": "contracts/WavePortal.sol",
  "abi": [
    {
      "inputs": [],
      "stateMutability": "nonpayable",
      "type": "constructor"
    },
    {
      "inputs": [],
      "name": "getTotalWavers",
      "outputs": [
        {
          "internalType": "string[]",
          "name": "",
          "type": "string[]"
        }
      ],
      "stateMutability": "view",
      "type": "function"
    },
    {
      "inputs": [],
      "name": "getTotalWaves",
      "outputs": [
        {
          "internalType": "uint256",
          "name": "",
          "type": "uint256"
        }
      ],
      "stateMutability": "view",
      "type": "function"
    },
    {
      "inputs": [
        {
          "internalType": "string",
          "name": "_waver",
          "type": "string"
        }
      ],
      "name": "storeNewWaver",
      "outputs": [],
      "stateMutability": "nonpayable",
      "type": "function"
    },
    {
      "inputs": [],
      "name": "wave",
      "outputs": [],
      "stateMutability": "nonpayable",
      "type": "function"
    }
  ],
  "bytecode": "0x608060405234801561001057600080fd5b5061003d6040518060800160405280604a815260200162000ca4604a913961004260201b6102f61760201c565b6101c5565b6100de816040516024016100569190610143565b6040516020818303038152906040527f41304fac000000000000000000000000000000000000000000000000000000007bffffffffffffffffffffffffffffffffffffffffffffffffffffffff19166020820180517bffffffffffffffffffffffffffffffffffffffffffffffffffffffff83818316178352505050506100e160201b60201c565b50565b60008151905060006a636f6e736f6c652e6c6f679050602083016000808483855afa5050505050565b600061011582610165565b61011f8185610170565b935061012f818560208601610181565b610138816101b4565b840191505092915050565b6000602082019050818103600083015261015d818461010a565b905092915050565b600081519050919050565b600082825260208201905092915050565b60005b8381101561019f578082015181840152602081019050610184565b838111156101ae576000848401525b50505050565b6000601f19601f8301169050919050565b610acf80620001d56000396000f3fe608060405234801561001057600080fd5b506004361061004c5760003560e01c80636fe15b44146100515780639a2cdc081461005b578063a126adab14610079578063e2a0e33c14610097575b600080fd5b6100596100b3565b005b61006361010d565b60405161007091906108b2565b60405180910390f35b610081610158565b60405161008e91906107d7565b60405180910390f35b6100b160048036038101906100ac9190610679565b610231565b005b60016000808282546100c59190610933565b9250508190555061010b6040518060400160405280600c81526020017f25732068617320776176656400000000000000000000000000000000000000008152503361038f565b565b60006101506040518060400160405280601681526020017f5765206861766520256420546f74616c2057617665730000000000000000000081525060005461042b565b600054905090565b60606001805480602002602001604051908101604052809291908181526020016000905b8282101561022857838290600052602060002001805461019b906109f8565b80601f01602080910402602001604051908101604052809291908181526020018280546101c7906109f8565b80156102145780601f106101e957610100808354040283529160200191610214565b820191906000526020600020905b8154815290600101906020018083116101f757829003601f168201915b50505050508152602001906001019061017c565b50505050905090565b600182829091806001815401808255809150506001900390600052602060002001600090919290919290919290919250919061026e92919061058c565b506102f26040518060400160405280600881526020017f257320536176656400000000000000000000000000000000000000000000000081525083838080601f016020809104026020016040519081016040528093929190818152602001838380828437600081840152601f19601f820116905080830192505050505050506104c7565b5050565b61038c8160405160240161030a91906107f9565b6040516020818303038152906040527f41304fac000000000000000000000000000000000000000000000000000000007bffffffffffffffffffffffffffffffffffffffffffffffffffffffff19166020820180517bffffffffffffffffffffffffffffffffffffffffffffffffffffffff8381831617835250505050610563565b50565b61042782826040516024016103a592919061081b565b6040516020818303038152906040527f319af333000000000000000000000000000000000000000000000000000000007bffffffffffffffffffffffffffffffffffffffffffffffffffffffff19166020820180517bffffffffffffffffffffffffffffffffffffffffffffffffffffffff8381831617835250505050610563565b5050565b6104c38282604051602401610441929190610882565b6040516020818303038152906040527f9710a9d0000000000000000000000000000000000000000000000000000000007bffffffffffffffffffffffffffffffffffffffffffffffffffffffff19166020820180517bffffffffffffffffffffffffffffffffffffffffffffffffffffffff8381831617835250505050610563565b5050565b61055f82826040516024016104dd92919061084b565b6040516020818303038152906040527f4b5c4277000000000000000000000000000000000000000000000000000000007bffffffffffffffffffffffffffffffffffffffffffffffffffffffff19166020820180517bffffffffffffffffffffffffffffffffffffffffffffffffffffffff8381831617835250505050610563565b5050565b60008151905060006a636f6e736f6c652e6c6f679050602083016000808483855afa5050505050565b828054610598906109f8565b90600052602060002090601f0160209004810192826105ba5760008555610601565b82601f106105d357803560ff1916838001178555610601565b82800160010185558215610601579182015b828111156106005782358255916020019190600101906105e5565b5b50905061060e9190610612565b5090565b5b8082111561062b576000816000905550600101610613565b5090565b60008083601f84011261064157600080fd5b8235905067ffffffffffffffff81111561065a57600080fd5b60208301915083600182028301111561067257600080fd5b9250929050565b6000806020838503121561068c57600080fd5b600083013567ffffffffffffffff8111156106a657600080fd5b6106b28582860161062f565b92509250509250929050565b60006106ca8383610756565b905092915050565b6106db81610989565b82525050565b60006106ec826108dd565b6106f68185610900565b935083602082028501610708856108cd565b8060005b85811015610744578484038952815161072585826106be565b9450610730836108f3565b925060208a0199505060018101905061070c565b50829750879550505050505092915050565b6000610761826108e8565b61076b8185610911565b935061077b8185602086016109c5565b61078481610a88565b840191505092915050565b600061079a826108e8565b6107a48185610922565b93506107b48185602086016109c5565b6107bd81610a88565b840191505092915050565b6107d1816109bb565b82525050565b600060208201905081810360008301526107f181846106e1565b905092915050565b60006020820190508181036000830152610813818461078f565b905092915050565b60006040820190508181036000830152610835818561078f565b905061084460208301846106d2565b9392505050565b60006040820190508181036000830152610865818561078f565b90508181036020830152610879818461078f565b90509392505050565b6000604082019050818103600083015261089c818561078f565b90506108ab60208301846107c8565b9392505050565b60006020820190506108c760008301846107c8565b92915050565b6000819050602082019050919050565b600081519050919050565b600081519050919050565b6000602082019050919050565b600082825260208201905092915050565b600082825260208201905092915050565b600082825260208201905092915050565b600061093e826109bb565b9150610949836109bb565b9250827fffffffffffffffffffffffffffffffffffffffffffffffffffffffffffffffff0382111561097e5761097d610a2a565b5b828201905092915050565b60006109948261099b565b9050919050565b600073ffffffffffffffffffffffffffffffffffffffff82169050919050565b6000819050919050565b60005b838110156109e35780820151818401526020810190506109c8565b838111156109f2576000848401525b50505050565b60006002820490506001821680610a1057607f821691505b60208210811415610a2457610a23610a59565b5b50919050565b7f4e487b7100000000000000000000000000000000000000000000000000000000600052601160045260246000fd5b7f4e487b7100000000000000000000000000000000000000000000000000000000600052602260045260246000fd5b6000601f19601f830116905091905056fea26469706673582212204602312149c27c23fab5a737769f6e220fa41cb7e4387b020fb034536ecebff464736f6c6343000804003348656c6c6f20576f726c642c204920616d20657863697465642061626f7574206275696c64696e6720616e6420696d706c656d656e74696e67206d7920536d617274436f6e7472616374",
  "linkReferences": {},
  "deployedLinkReferences": {}
}